{
  "contractName": "MetaCoin",
  "abi": [
    {
      "inputs": [],
      "stateMutability": "nonpayable",
      "type": "constructor"
    },
    {
      "anonymous": false,
      "inputs": [
        {
          "indexed": true,
          "internalType": "address",
          "name": "_from",
          "type": "address"
        },
        {
          "indexed": true,
          "internalType": "address",
          "name": "_to",
          "type": "address"
        },
        {
          "indexed": false,
          "internalType": "uint256",
          "name": "_value",
          "type": "uint256"
        }
      ],
      "name": "Transfer",
      "type": "event"
    },
    {
      "inputs": [],
      "name": "owner",
      "outputs": [
        {
          "internalType": "address",
          "name": "",
          "type": "address"
        }
      ],
      "stateMutability": "view",
      "type": "function",
      "constant": true
    },
    {
      "inputs": [
        {
          "internalType": "address",
          "name": "receiver",
          "type": "address"
        },
        {
          "internalType": "uint256",
          "name": "amount",
          "type": "uint256"
        }
      ],
      "name": "sendCoin",
      "outputs": [
        {
          "internalType": "bool",
          "name": "sufficient",
          "type": "bool"
        }
      ],
      "stateMutability": "nonpayable",
      "type": "function"
    },
    {
      "inputs": [
        {
          "internalType": "address",
          "name": "addr",
          "type": "address"
        }
      ],
      "name": "getBalanceInEth",
      "outputs": [
        {
          "internalType": "uint256",
          "name": "",
          "type": "uint256"
        }
      ],
      "stateMutability": "view",
      "type": "function",
      "constant": true
    },
    {
      "inputs": [
        {
          "internalType": "address",
          "name": "addr",
          "type": "address"
        }
      ],
      "name": "getBalance",
      "outputs": [
        {
          "internalType": "uint256",
          "name": "",
          "type": "uint256"
        }
      ],
      "stateMutability": "view",
      "type": "function",
      "constant": true
    },
    {
      "inputs": [
        {
          "internalType": "address",
          "name": "receiver",
          "type": "address"
        },
        {
          "internalType": "uint256",
          "name": "amount",
          "type": "uint256"
        }
      ],
      "name": "mint",
      "outputs": [],
      "stateMutability": "nonpayable",
      "type": "function"
    }
  ],
  "bytecode": "0x608060405234801561001057600080fd5b5033600160006101000a81548173ffffffffffffffffffffffffffffffffffffffff021916908373ffffffffffffffffffffffffffffffffffffffff1602179055506100643361271061006960201b60201c565b610314565b600160009054906101000a900473ffffffffffffffffffffffffffffffffffffffff1673ffffffffffffffffffffffffffffffffffffffff163373ffffffffffffffffffffffffffffffffffffffff16146100f9576040517f08c379a00000000000000000000000000000000000000000000000000000000081526004016100f09061023b565b60405180910390fd5b806000808473ffffffffffffffffffffffffffffffffffffffff1673ffffffffffffffffffffffffffffffffffffffff16815260200190815260200160002060008282546101479190610294565b925050819055508173ffffffffffffffffffffffffffffffffffffffff16600073ffffffffffffffffffffffffffffffffffffffff167fddf252ad1be2c89b69c2b068fc378daa952ba7f163c4a11628f55a4df523b3ef836040516101ac91906102f9565b60405180910390a35050565b600082825260208201905092915050565b7f4f6e6c7920746865206f776e65722063616e2063616c6c20746869732066756e60008201527f6374696f6e000000000000000000000000000000000000000000000000000000602082015250565b60006102256025836101b8565b9150610230826101c9565b604082019050919050565b6000602082019050818103600083015261025481610218565b9050919050565b6000819050919050565b7f4e487b7100000000000000000000000000000000000000000000000000000000600052601160045260246000fd5b600061029f8261025b565b91506102aa8361025b565b9250827fffffffffffffffffffffffffffffffffffffffffffffffffffffffffffffffff038211156102df576102de610265565b5b828201905092915050565b6102f38161025b565b82525050565b600060208201905061030e60008301846102ea565b92915050565b6108bb80620003246000396000f3fe608060405234801561001057600080fd5b50600436106100575760003560e01c806340c10f191461005c5780637bd703e8146100785780638da5cb5b146100a857806390b98a11146100c6578063f8b2cb4f146100f6575b600080fd5b61007660048036038101906100719190610573565b610126565b005b610092600480360381019061008d91906105b3565b610275565b60405161009f91906105ef565b60405180910390f35b6100b0610301565b6040516100bd9190610619565b60405180910390f35b6100e060048036038101906100db9190610573565b610327565b6040516100ed919061064f565b60405180910390f35b610110600480360381019061010b91906105b3565b610492565b60405161011d91906105ef565b60405180910390f35b600160009054906101000a900473ffffffffffffffffffffffffffffffffffffffff1673ffffffffffffffffffffffffffffffffffffffff163373ffffffffffffffffffffffffffffffffffffffff16146101b6576040517f08c379a00000000000000000000000000000000000000000000000000000000081526004016101ad906106ed565b60405180910390fd5b806000808473ffffffffffffffffffffffffffffffffffffffff1673ffffffffffffffffffffffffffffffffffffffff1681526020019081526020016000206000828254610204919061073c565b925050819055508173ffffffffffffffffffffffffffffffffffffffff16600073ffffffffffffffffffffffffffffffffffffffff167fddf252ad1be2c89b69c2b068fc378daa952ba7f163c4a11628f55a4df523b3ef8360405161026991906105ef565b60405180910390a35050565b600073__ConvertLib____________________________6396e4ee3d61029a84610492565b60026040518363ffffffff1660e01b81526004016102b99291906107e6565b602060405180830381865af41580156102d6573d6000803e3d6000fd5b505050506040513d601f19601f820116820180604052508101906102fa9190610824565b9050919050565b600160009054906101000a900473ffffffffffffffffffffffffffffffffffffffff1681565b6000816000803373ffffffffffffffffffffffffffffffffffffffff1673ffffffffffffffffffffffffffffffffffffffff168152602001908152602001600020541015610378576000905061048c565b816000803373ffffffffffffffffffffffffffffffffffffffff1673ffffffffffffffffffffffffffffffffffffffff16815260200190815260200160002060008282546103c69190610851565b92505081905550816000808573ffffffffffffffffffffffffffffffffffffffff1673ffffffffffffffffffffffffffffffffffffffff168152602001908152602001600020600082825461041b919061073c565b925050819055508273ffffffffffffffffffffffffffffffffffffffff163373ffffffffffffffffffffffffffffffffffffffff167fddf252ad1be2c89b69c2b068fc378daa952ba7f163c4a11628f55a4df523b3ef8460405161047f91906105ef565b60405180910390a3600190505b92915050565b60008060008373ffffffffffffffffffffffffffffffffffffffff1673ffffffffffffffffffffffffffffffffffffffff168152602001908152602001600020549050919050565b600080fd5b600073ffffffffffffffffffffffffffffffffffffffff82169050919050565b600061050a826104df565b9050919050565b61051a816104ff565b811461052557600080fd5b50565b60008135905061053781610511565b92915050565b6000819050919050565b6105508161053d565b811461055b57600080fd5b50565b60008135905061056d81610547565b92915050565b6000806040838503121561058a576105896104da565b5b600061059885828601610528565b92505060206105a98582860161055e565b9150509250929050565b6000602082840312156105c9576105c86104da565b5b60006105d784828501610528565b91505092915050565b6105e98161053d565b82525050565b600060208201905061060460008301846105e0565b92915050565b610613816104ff565b82525050565b600060208201905061062e600083018461060a565b92915050565b60008115159050919050565b61064981610634565b82525050565b60006020820190506106646000830184610640565b92915050565b600082825260208201905092915050565b7f4f6e6c7920746865206f776e65722063616e2063616c6c20746869732066756e60008201527f6374696f6e000000000000000000000000000000000000000000000000000000602082015250565b60006106d760258361066a565b91506106e28261067b565b604082019050919050565b60006020820190508181036000830152610706816106ca565b9050919050565b7f4e487b7100000000000000000000000000000000000000000000000000000000600052601160045260246000fd5b60006107478261053d565b91506107528361053d565b9250827fffffffffffffffffffffffffffffffffffffffffffffffffffffffffffffffff038211156107875761078661070d565b5b828201905092915050565b61079b8161053d565b82525050565b6000819050919050565b6000819050919050565b60006107d06107cb6107c6846107a1565b6107ab565b61053d565b9050919050565b6107e0816107b5565b82525050565b60006040820190506107fb6000830185610792565b61080860208301846107d7565b9392505050565b60008151905061081e81610547565b92915050565b60006020828403121561083a576108396104da565b5b60006108488482850161080f565b91505092915050565b600061085c8261053d565b91506108678361053d565b92508282101561087a5761087961070d565b5b82820390509291505056fea2646970667358221220b934b74803d2f3438e521241f0e0775bb41f52a420a6a2ef3b4f9fe7986725ed64736f6c634300080d0033",
  "immutableReferences": {},
  "source": "// SPDX-License-Identifier: MIT\npragma solidity ^0.8.13;\n\nimport \"./ConvertLib.sol\";\n\ncontract MetaCoin {\n    mapping(address => uint) balances;\n    address public owner;\n\n    event Transfer(address indexed _from, address indexed _to, uint256 _value);\n\n    constructor() {\n        // Set the contract deployer as the owner\n        owner = msg.sender;\n\n        // Mint initial coins to the contract creator\n        mint(msg.sender, 10000);\n    }\n\n    modifier onlyOwner() {\n        require(msg.sender == owner, \"Only the owner can call this function\");\n        _;\n    }\n\n    function sendCoin(address receiver, uint amount) public returns (bool sufficient) {\n        if (balances[msg.sender] < amount) return false;\n        balances[msg.sender] -= amount;\n        balances[receiver] += amount;\n        emit Transfer(msg.sender, receiver, amount);\n        return true;\n    }\n\n    function getBalanceInEth(address addr) public view returns (uint) {\n        return ConvertLib.convert(getBalance(addr), 2);\n    }\n\n    function getBalance(address addr) public view returns (uint) {\n        return balances[addr];\n    }\n\n    // Mint function to create new coins and assign them to a receiver\n    function mint(address receiver, uint amount) public onlyOwner {\n        balances[receiver] += amount;\n        emit Transfer(address(0), receiver, amount); // Emit a transfer event from address(0) to signify minting\n    }\n}\n",
  "sourcePath": "/Users/arunimachaudhuri/Documents/test0505/contracts/MetaCoin.sol",
  "compiler": {
    "name": "solc",
    "version": "0.8.13+commit.abaa5c0e.Emscripten.clang"
  },
  "schemaVersion": "3.4.16",
  "updatedAt": "2025-05-08T00:17:44.842Z",
  "networkType": "ethereum",
  "devdoc": {
    "kind": "dev",
    "methods": {},
    "version": 1
  },
  "userdoc": {
    "kind": "user",
    "methods": {},
    "version": 1
  }
}